:100000000C9470030C9498030C9498030C9498032C
:100010000C9498030C9498030C9498030C949803F4
:100020000C9498030C9498030C94B8080C9427092A
:100030000C9498030C9498030C9498030C949803D4
:100040000C9498030C9498030C9498030C949803C4
:100050000C9498030C9498030C9498030C94590BEB
:100060000C9498030C9498030C9498030C949803A4
:100070000C9498030C9498030C9498030C94980394
:100080000C9498030C9498030C9498030C94980384
:100090000C9498030C9498030C9498030C94980374
:1000A0000C9498030C9498030C949803000000009F
:1000B000003E5B4F5B3E3E6B4F6B3E1C3E7C3E1CEE
:1000C000183C7E3C181C577D571C1C5E7F5E1C0034
:1000D000183C1800FFE7C3E7FF0018241800FFE7EB
:1000E000DBE7FF30483A060E2629792926407F05AE
:1000F0000507407F05253F5A3CE73C5A7F3E1C1CC4
:1001000008081C1C3E7F14227F22145F5F005F5F83
:1001100006097F017F006689956A6060606060946F
:10012000A2FFA29408047E040810207E2010080874
:100130002A1C08081C2A08081E101010100C1E0C7F
:100140001E0C30383E3830060E3E0E060000000011
:100150000000005F00000007000700147F147F14F8
:10016000242A7F2A1223130864623649562050003D
:1001700008070300001C2241000041221C002A1C29
:100180007F1C2A08083E0808008070300008080814
:100190000808000060600020100804023E51494534
:1001A0003E00427F400072494949462141494D3352
:1001B0001814127F1027454545393C4A49493141B9
:1001C000211109073649494936464949291E000087
:1001D00014000000403400000008142241141414DC
:1001E0001414004122140802015909063E415D59C8
:1001F0004E7C1211127C7F494949363E41414122D1
:100200007F4141413E7F494949417F090909013EFA
:10021000414151737F0808087F00417F4100204021
:10022000413F017F081422417F404040407F021C33
:10023000027F7F0408107F3E4141413E7F0909094A
:10024000063E4151215E7F09192946264949493216
:1002500003017F01033F4040403F1F2040201F3FDC
:100260004038403F63140814630304780403615961
:10027000494D43007F4141410204081020004141A3
:10028000417F04020102044040404040000307084F
:100290000020545478407F2844443838444444284B
:1002A000384444287F385454541800087E090218F2
:1002B000A4A49C787F0804047800447D400020407A
:1002C000403D007F1028440000417F40007C0478BE
:1002D00004787C080404783844444438FC18242406
:1002E0001818242418FC7C08040408485454542486
:1002F00004043F44243C4040207C1C2040201C3C03
:100300004030403C44281028444C9090907C4464F9
:10031000544C44000836410000007700000041368C
:10032000080002010204023C2623263C1EA1A16112
:10033000123A4040207A3854545559215555794144
:100340002154547841215554784020545579400C1B
:100350001E527212395555555939545454593955FC
:100360005454580000457C410002457D420001453F
:100370007C40F0292429F0F0282528F07C545545AC
:10038000002054547C547C0A097F4932494949323F
:100390003248484832324A4848303A4141217A3A54
:1003A00042402078009DA0A07D39444444393D401E
:1003B00040403D3C24FF2424487E4943662B2FFCCB
:1003C0002F2BFF0929F620C0887E09032054547979
:1003D000410000447D413048484A32384040227A4A
:1003E000007A0A0A727D0D19317D2629292F2826C7
:1003F0002929292630484D402038080808080808CF
:100400000808382F10C8ACBA2F102834FA00007B27
:10041000000008142A142222142A1408950022002D
:1004200095AA005500AAAA55AA55AA000000FF00E7
:10043000101010FF00141414FF001010FF00FF1024
:1004400010F010F0141414FC001414F700FF000056
:10045000FF00FF1414F404FC141417101F10101FD5
:10046000101F1414141F00101010F0000000001FC3
:10047000101010101F10101010F010000000FF10CE
:100480001010101010101010FF10000000FF1400CA
:1004900000FF00FF00001F10170000FC04F41414FC
:1004A0001710171414F404F40000FF00F7141414C8
:1004B00014141414F700F7141414171410101F1048
:1004C0001F141414F4141010F010F000001F101F6B
:1004D0000000001F14000000FC140000F010F010D9
:1004E00010FF10FF141414FF141010101F00000050
:1004F00000F010FFFFFFFFFFF0F0F0F0F0FFFFFF54
:100500000000000000FFFF0F0F0F0F0F38444438AA
:10051000447C2A2A3E147E02020606027E027E02E5
:1005200063554941633844443C04407E201E200604
:10053000027E020299A5E7A5991C2A492A1C4C7241
:1005400001724C304A4D4D303048784830BC625AC8
:10055000463D3E494949007E0101017E2A2A2A2A58
:100560002A44445F444440514A444040444A514034
:100570000000FF0103E080FF000008086B6B0836F5
:1005800012362436060F090F060000181800000066
:100590001010003040FF0101001F01011E00191D55
:1005A0001712003C3C3C3C0000000000080B00021D
:1005B00002020100090400000102020000052400FB
:1005C000100105240101010424020605240600018E
:1005D0000705810310004009040100020A00000021
:1005E00007050202400000070583024000000403E3
:1005F000090412010002EF0201404123368000018C
:100600000102030141726475696E6F204C4C430016
:1006100041726475696E6F204C656F6E6172646FB4
:1006200000F0F89C8E8783878E9CF8F00000FEFF18
:100630000303030303070EFCF80000FEFF0303039C
:100640000303070EFCF80000FFFF0000000000009D
:1006500000FFFF0000FEFF8383838383C7EE7C38A7
:100660000000F8FC0E07030303070EFCF800003F30
:100670007FE0C08080C0E07F3FFFFF0101010101FA
:100680000101FFFF0000FFFF0C0C0C0C1C3E77E388
:10069000C100007FFFC0C0C0C0C0E0703F1F0000AD
:1006A0001F3F70E0C0C0C0E0703F1F00007FFFC16F
:1006B000C1C1C1C1E3773E1C00001F3F70E0C0C054
:1006C000C0E0703F1F000000000001FFFF010000BC
:1006D00000D5F08D14A1C881CFD9F1AF20001A0C3C
:1006E00011241FBECFEFDAE0DEBFCDBF11E0A0E0E6
:1006F000B1E0E4E4FEE202C005900D92A63BB10732
:10070000D9F726E0A6EBB1E001C01D92A835B207EB
:10071000E1F713E0C0E7D3E004C02197FE010E9497
:100720003D14CF36D107C9F70E94530C0C94201703
:100730000C940000EFEEF1E0A0E0B8E000800EBC09
:100740008111012C1197A0FDFDCF0192B9F70DB4D5
:10075000089580E00C949A0380E0EFEEF1E08111BF
:100760008FEF002481938193819381930394D1F738
:100770000895FC018091EE01882311F13FB7F894B0
:1007800082E08093E9002091F200822F90E0181619
:10079000190614F481E090E0882339F0289844E6A3
:1007A0004093ED014091F1004083222339F02091E4
:1007B000F200211103C02BE62093E8003FBF08950B
:1007C0008FEF9FEF08952FB7F89483E08093E900AF
:1007D0009091E800892F807295FF04C09091F200FB
:1007E00080E4891B2FBF08958091E50181110DC020
:1007F00082E08093E10184E08093E2011092E401C1
:100800001092E30181E08093E50181EE91E008958B
:100810004091BE015091BF012091BC013091BD01BA
:1008200042175307B4F49091E8009570E1F390916A
:10083000E80092FD19C08093F1008091BE01909173
:10084000BF0101968F739927892B19F48EEF80933E
:10085000E8008091BE019091BF0101969093BF0185
:100860008093BE0181E0089580E00895DF92EF92C9
:10087000FF920F931F93CF93DF93D82E8A01EB0142
:100880007B01E40EF51ECE15DF0559F0D7FE12C030
:10089000FE0184910E94080421968111F4CF0FEF8C
:1008A0001FEFC801DF91CF911F910F91FF90EF9043
:1008B000DF9008958881EECF0F931F93CF93DF933E
:1008C0001F92CDB7DEB782E0898342E450E06CEA44
:1008D00075E080E80E9436040E94F403DC01129661
:1008E0000D911C910115110589F0D801ED91FC9134
:1008F0000280F381E02DBE016F5F7F4FC801099533
:1009000097FD04C0F80100851185ECCF89810F9017
:10091000DF91CF911F910F910895615030F0209198
:10092000F100FC0120830196F8CF289884E680939B
:10093000ED010895AF92BF92CF92DF92EF92FF92B6
:100940000F931F93CF93DF936C017B018B01040FF7
:10095000151FEB015E01AE18BF08C017D10759F093
:100960006991D601ED91FC910190F081E02DC601D5
:100970000995892B79F7C501DF91CF911F910F91CF
:10098000FF90EF90DF90CF90BF90AF900895CF93FE
:10099000DF931F92CDB7DEB76983DC01ED91FC9147
:1009A0000280F381E02D41E050E0BE016F5F7F4F98
:1009B00009950F90DF91CF91089583E08093E9002E
:1009C0008091F200882319F08AE38093E80008956B
:1009D0000E94E30390E00895CF93DF931F92CDB779
:1009E000DEB7FC018485958597FD08C02FEF3FEFAA
:1009F000358724870F90DF91CF910895CE0101961E
:100A00000E94B903019719F4898190E0F3CF8FEF29
:100A10009FEFF0CF0F931F93CF93DF931F92CDB72C
:100A2000DEB78C01FC018485958597FF0BC0CE0154
:100A300001960E94B903019771F4898190E0F80151
:100A400095878487F801848595850F90DF91CF91F4
:100A50001F910F9108958FEF9FEFF1CFFC018485D7
:100A6000958597FD0BC09FB7F89482E08093E900CD
:100A70008091F2009FBF90E0019608959FB7F8948F
:100A800082E08093E9008091F2009FBF90E008959A
:100A90003FB7F8948091B8019091B901A091BA0143
:100AA000B091BB0126B5A89B05C02F3F19F0019658
:100AB000A11DB11D3FBFBA2FA92F982F8827BC01B8
:100AC000CD01620F711D811D911D42E0660F771FE0
:100AD000881F991F4A95D1F708958F929F92AF92E0
:100AE000BF92CF92DF92EF92FF926B017C010E9446
:100AF00048054B015C01C114D104E104F104B9F0D3
:100B00000E944805681979098A099B09683E734063
:100B10008105910580F321E0C21AD108E108F108AE
:100B200088EE880E83E0981EA11CB11CE4CFFF90D4
:100B3000EF90DF90CF90BF90AF909F908F900895EF
:100B40008F929F92AF92BF92CF92DF92EF92FF92DD
:100B50000F931F93CF93DF936C017B018A018091E8
:100B60000B01882309F45CC08091EE01882309F40D
:100B700057C08091C20180FF05C08091E000826073
:100B80008093E000E801B12C8AEFA82E93E0892E33
:100B90002AE3922E209711F4BB20D9F10E94E3039F
:100BA00081110AC0AA94AA20D9F161E070E080E026
:100BB00090E00E946D05EECF8C171D0611F00CF031
:100BC0008C2F9FB7F8948092E9002091E80025FDD2
:100BD00002C09FBFDFCF282F30E0C21BD30BF7012D
:100BE000815020F041914093F100FACFE20EF31EC4
:100BF000BB2021F09092E800B12CEBCF8091E8006F
:100C000085FDE7CF9092E800BB24B394209709F3C9
:100C1000F3CF5D9884E68093C101101611063CF075
:100C200081E090E0F6019383828310E000E0C80148
:100C3000DF91CF911F910F91FF90EF90DF90CF90B8
:100C4000BF90AF909F908F9008952D9A0895BC010A
:100C500090E080E00C946D058FB18095807F669B5D
:100C600088601C9B84600895480F592F511D1416ED
:100C70001506D4F580389105BCF597FF02C090E0C9
:100C800080E04138510514F040E850E0481BFB017A
:100C900077FD379633E0F595E7953A95E1F7F695C8
:100CA000FE2FEE27F795E795E80FF91FE151FE4F6C
:100CB0006770772781E090E001C0880F6A95EAF7B6
:100CC000382F213041F4415078F08191DF011197A4
:100CD000832B8C93F8CF8095415030F09191DF01B8
:100CE000119798239C93F8CF089580389105B8F414
:100CF00060347105A0F420E191E061FD94E060FDB5
:100D0000990F62FD9295687F269FD0011124A80F4C
:100D1000A151BE4F8C9140FF03C0892B8C93089545
:100D200090958923FBCF8F929F92AF92BF92CF92E3
:100D3000DF92EF92FF920F93CF93DF935B01EC0171
:100D40004C01840E911C6B01C20ED11CC815D90533
:100D5000D4F47501B7FE02C0F12CE12CC60121E4E8
:100D6000C216D10414F080E490E0E816F9064CF4C1
:100D7000402FB701CE010E9475068FEFE81AF80ADE
:100D8000EDCF2196E3CFDF91CF910F91FF90EF90C0
:100D9000DF90CF90BF90AF909F908F9008956F920B
:100DA0007F929F92AF92BF92CF92DF92EF92FF928B
:100DB0000F931F93CF93DF937C01EB01042F922EAF
:100DC0006034710510F40E9434065E0187E0A80EBD
:100DD000B11CBE016A5F7F4F603471052CF4292D70
:100DE000402FC7010E943406D7FF02C0D0E0C0E008
:100DF0003E01650181E4A816B1041CF080E4C82E10
:100E0000D12C6C147D044CF4492DB301C7010E9410
:100E100075068FEF681A780AECCF0E0D1F2D111D85
:100E200001501109CC15DD053CF4492DBE01C80166
:100E30000E9475062196F6CFDF91CF911F910F91F9
:100E4000FF90EF90DF90CF90BF90AF909F907F90FA
:100E50006F9008952F923F924F925F926F927F9280
:100E60008F929F92AF92BF92CF92DF92EF92FF92BA
:100E70000F931F93CF93DF93CDB7DEB72A970FB6AB
:100E8000F894DEBF0FBECDBF9A8389836A3061F5C7
:100E9000DC0155968C91B8E08B9F90011124E9817B
:100EA000FA8181899289820F931F928B818B108A9C
:100EB000178681E090E02A960FB6F894DEBF0FBE49
:100EC000CDBFDF91CF911F910F91FF90EF90DF90F9
:100ED000CF90BF90AF909F908F907F906F905F90DA
:100EE0004F903F902F9008956D3019F329813A81EA
:100EF0003A872987D9011F96AD90BC90B0E8AB1610
:100F0000B1040CF07BC0F901C188D288F0E4CF169F
:100F1000D1040CF073C0D90155966C90559745E0FB
:100F20009501649E200D311D1124121613060CF03C
:100F300065C0262C312C910153E0220F331F5A95A6
:100F4000E1F72C0D3D1D121613060CF057C05496F8
:100F5000BC91BB83E985FA85F389FC83649FB0016A
:100F600011249B0124553F4F3A832983712CE98139
:100F7000FA818491F5E07F1201C080E0460138E0FB
:100F8000532E282F30E03E832D834C8080FF4B80F2
:100F9000411004C03B818C813817E1F010E000E083
:100FA0000615C0F4D501A00FB11FB887AF83F12C8F
:100FB000E12CE61460F4B701680D791D442D8F8192
:100FC00098850E947506BFEFEB1AFB0AF2CF0F5F00
:100FD0001F4FE6CF8D819E81959587955A94820CFF
:100FE000931C5110CECF7394E981FA813196FA8324
:100FF000E983A20CB31CF6E07F12B9CFA985BA85AC
:1010000055962C915597422F50E01F968D919C91AB
:10101000B6E02B9F800D911D1124E985FA85908BF8
:1010200087872689222309F444CF6AEF640390015D
:10103000659F300D112420583F4F281739070CF0B9
:1010400038CFDF010190F081E02D0190F081E02D9B
:101050006AE0CD0109952DCF0895089590E080E0D4
:1010600008950F931F93CF93DF938C01D0E0C0E0DE
:101070008FE090E00E9427060E942C0683FF0CC0A0
:101080008091B60181110DC081E08093C801DF918C
:10109000CF911F910F9108950E942C0682FDF0CFF1
:1010A00080E08093B60121960C171D0709F780E0B8
:1010B000EECF8F929F92AF92BF920F931F93CF93D9
:1010C000DF93CDB7DEB7A1970FB6F894DEBF0FBEA2
:1010D000CDBF19A2423008F44AE08E010F5D1F4FC8
:1010E000842E912CB12CA12CA50194010E940C14EA
:1010F000E62FB901CA01EA3044F5E05DD801EE936C
:101100008D01232B242B252B79F790E080E010977D
:1011100069F0FD0101900020E9F73197AF014A1B0A
:101120005B0BBD018FEE95E00E94A005A1960FB666
:10113000F894DEBF0FBECDBFDF91CF911F910F910D
:10114000BF90AF909F908F900895E95CD7CFFC013E
:1011500001900020E9F73197AF01481B590BBC0102
:1011600081E496E00C949A040C94C4130E944314F6
:101170001F920F920FB60F9211248F939F9380911D
:10118000E1009091E100937F9093E10083FF0FC015
:101190001092E90091E09093EB001092EC0092E342
:1011A0009093ED001092EE0198E09093F00082FF92
:1011B00022C093E09093E9009091F200992319F0F6
:1011C0009AE39093E8009091C101992341F09091A6
:1011D000C10191509093C101911101C05D9A90910C
:1011E000ED01992341F09091ED0191509093ED0123
:1011F000911101C0289A84FF18C08091E2008E7E70
:1012000081608093E2008091E1008F7E8093E10015
:101210008091C2018E7E80618093C2019F918F91E7
:101220000F900FBE0F901F90189580FFF7CF809101
:10123000E2008E7E80618093E2008091E1008E7EEC
:101240008093E1008091C2018E7E8160E5CF1F9284
:101250000F920FB60F921124CF92DF92EF92FF926E
:101260000F931F932F933F934F935F936F937F93AE
:101270008F939F93AF93BF93EF93FF93CF93DF939E
:10128000CDB7DEB76C97DEBFCDBF1092E90080917D
:10129000E80083FF25C068E0CE0145960E948D04DA
:1012A00082EF8093E8008D8987FF39C09091E80034
:1012B00090FFFCCF982F907609F034C19E894F891A
:1012C000588D2F89F88C911131C0803861F580914B
:1012D000C3018093F1001092F1008EEF8093E8003B
:1012E0006C960FB6F894DEBF0FBECDBFDF91CF91E5
:1012F000FF91EF91BF91AF919F918F917F916F91EE
:101300005F914F913F912F911F910F91FF90EF901F
:10131000DF90CF900F900FBE0F901F9018959EEF0B
:101320009093E800C7CF1092F100D5CF913059F4D7
:101330008111D3CF4130510581F68091C3018D7F5A
:101340008093C301CACF933049F48111C6CF413095
:10135000510519F68091C3018260F2CF953041F4B6
:101360008091E80080FFFCCF20682093E300B5CF98
:10137000963009F0A9C00B8D1C8D22E01092E90077
:101380001092BF011092BE01F2122EC01092BD0148
:101390001092BC010E945C041F8299E09983FA823A
:1013A00091E09E8390EA98879AEF99872091BE01F9
:1013B0003091BF01275F3F4F3C832B838D83109279
:1013C000E9001092BF011092BE011093BD0100937D
:1013D000BC0149E050E0BE016F5F7F4F80E00E949A
:1013E00036040E945C0479CF1093BD010093BC01C8
:1013F0000E94F403DC0112960D911C910115110558
:1014000009F451C1D801ED91FC910480F581E02DE2
:10141000BE016B5E7F4FC8010995009709F03EC180
:10142000F80100851185EACFF3E0FF120EC08F8925
:10143000882309F440C0823061F440E860E180E133
:1014400096E00E94A30B811148CF81E28093EB00CC
:1014500047CF813029F440E86BE084E096E0F1CF9B
:10146000833099F70E94F403DC011296ED90FC9012
:101470008E010F5F1F4F6801E114F10479F0D7016D
:10148000ED91FC910680F781E02DB801C701099527
:10149000080F111DF701E084F184EECFD8011C92F2
:1014A000F60101900020E9F73197BF016C197D0921
:1014B00040E0C601C6CF6EEE75E0FB01449150E0FE
:1014C00080E80E94360409CF973009F4BECF9830E7
:1014D00021F481E08093F10000CF993009F0FDCE36
:1014E000837009F0B2CFEBE3F1E081E031E096E305
:1014F0002191222371F08093E9003093EB00DF010A
:1015000011972C912093EC009093ED008F5F873022
:1015100079F78EE78093EA001092EA008F89809332
:10152000EE01DBCE8B8D9C8D1092E9001092BF01F5
:101530001092BE019093BD018093BC01898D8111F1
:1015400092C08E899D89913A49F4813209F07DCF0C
:1015500047E050E064E071E080E0B3CF913209F001
:1015600074CF833269F48F89988DB0E0A0E08093C6
:10157000000190930101A0930201B0930301ADCE4D
:10158000803269F48091E80082FFFCCF67E084E05C
:1015900091E00E948D048BEF8093E8009ECE823212
:1015A00009F09BCE8F8980930B01EEEFFFE78591C9
:1015B00094918B3F9C4D51F1E0E0F8E08091040163
:1015C00090910501A0910601B0910701803B9440E4
:1015D000A105B105F1F480910B0180FD1AC0EE3F29
:1015E0008AE0F80789F587E797E791838083809100
:1015F00060008093C00188E19BE00FB6F894A89545
:10160000809360000FBE9093600067CEEEEFFAE02B
:10161000D5CF808191818737974709F05ECEA89515
:10162000809160008861809360008091C001809308
:101630006000EE3F2AE0F20789F08091FE0A909167
:10164000FF0A9183808349CE8081918187379807F3
:1016500051F29093FF0A8093FE0AC5CF1092FF0AC1
:101660001092FE0A3ACE0E94F403DC0112960D910C
:101670001C910115110509F4E8CED801ED91FC91FA
:101680000190F081E02DBE016B5E7F4FC80109958E
:10169000811123CEF80100851185EBCF18161906AC
:1016A0000CF41BCED2CEF1E0FF12BECE62EF75E09D
:1016B00004CF1F920F920FB60F9211242F933F93D6
:1016C0008F939F93AF93BF938091C4019091C50175
:1016D000A091C601B091C7013091B70123E0230F5B
:1016E0002D3758F50196A11DB11D2093B7018093A8
:1016F000C4019093C501A093C601B093C701809126
:10170000B8019091B901A091BA01B091BB010196C5
:10171000A11DB11D8093B8019093B901A093BA01A6
:10172000B093BB01BF91AF919F918F913F912F914A
:101730000F900FBE0F901F90189526E8230F02966A
:10174000A11DB11DD2CFEF92FF920F931F93CF93A4
:10175000DF93F82E192FE62E042F81E0860F880FD5
:101760000E94080483E00E940804CF2DD12FEC0EC4
:10177000FD2EF11CCE15DF05B9F007FF13C0FE01E9
:1017800084910E940804182F80E00E94080481239D
:1017900021968111EFCFDF91CF911F910F91FF9093
:1017A000EF9008958881EDCF81E0F5CF0F931F93DF
:1017B000CF93DF938C0181E090E00E94B40880FF1A
:1017C00031C08AE090E00E94B4089FEF980F9E3FDE
:1017D00048F522E330E0D80150963C932E931F97B2
:1017E00028E330E052963C932E935197CBE0D0E023
:1017F000D801ED91FC910190F081E02D682FC80196
:101800000995CE010E94B4082196C131D10581F716
:101810000E94A90388EE93E0DF91CF911F910F9171
:101820000C942706DF91CF911F910F910895049793
:101830000C94D60BEFEEF5E01382128288EE93E063
:10184000A0E0B0E084839583A683B78385E491E02C
:10185000918380838FEF9FEF95878487E1E4F6E0A3
:10186000138212821186128680E183871086178286
:10187000158687E591E09183808385E691E09583E5
:101880008483108A1786128A118A81E0838B148AD6
:10189000858B168AE0914006F0E0E959FE4F808181
:1018A00080933F060895789484B5826084BD84B5A2
:1018B000816084BD85B5826085BD85B5816085BD4B
:1018C00080916E00816080936E0010928100809103
:1018D000810082608093810080918100816080938B
:1018E00081008091800081608093800080919100D0
:1018F000826080939100809191008160809391003B
:10190000809190008160809390008091C1008460FC
:101910008093C1008091C10082608093C10080915A
:10192000C10081608093C1008091C3008160809379
:10193000C3008091C00082608093C0008091C2008B
:1019400081608093C20080917A00846080937A00E5
:1019500080917A00826080937A0080917A00816021
:1019600080937A0080917A00806880937A00109248
:10197000EE011092C3011092C2018091D7008160E4
:101980008093D70080EA8093D80089B5806189BDB3
:1019900089B5826089BD09B400FEFDCF61E070E0C9
:1019A00080E090E00E946D058091D8008F7C80617E
:1019B0008093D8008091E000807F8093E000809148
:1019C000E1008E7E8093E1008DE08093E200559AE5
:1019D000209A81EC80937C0085B1806F85B984B1B9
:1019E000877E84B984B1876E84B95E9A5F988AB124
:1019F000806D8AB9769A6E9881B3806F81BB899821
:101A000080B38D7080BB80E58CBD81E08DBD85E0AD
:101A100090E00E9427065F9A85E090E00E942706EA
:101A20005E985C98E1EDF6E084918EBD00000DB407
:101A300007FEFDCF319606E0EE3DF007A9F75C9A70
:101A400081E88093640080916500816080936500E7
:101A50000E94A9030E942C0687FF15C05C9885EAA6
:101A60008EBD00000DB407FEFDCF5C9A2E982F9816
:101A70002D988091640080628093640081E083BF30
:101A8000889513BEFCCF0E942C0682FF48C02D987B
:101A90000E942C0684788438E1F40E94250688ECA4
:101AA00090E00E9427062F9882E090E00E94C413E5
:101AB0008F3F29F06FEF82E090E00E94CC1384EF1B
:101AC00091E00E9427062F9A0E942C068478843881
:101AD000D9F30E942C0684718431E1F40E9425061A
:101AE00088EC90E00E9427062E9882E090E00E9409
:101AF000C413882329F060E082E090E00E94CC13B8
:101B000084EF91E00E9427062E9A0E942C06847191
:101B10008431D9F388EC90E00E942706B4CF0E946C
:101B2000250682E090E00E94B408882309F482C070
:101B30003E9A3F9A81E090E00E94B408182F1470FA
:101B4000912E81FF0EC011112E98C0EFDFEF08E03B
:101B500010E00E942C0686FF70C02E9A2F9A0E94D9
:101B6000250682E390E00E9427060E942C06811140
:101B7000F8CF109290008AE08093910084E68093E1
:101B80004C06809164008E7F8093640080917A007F
:101B9000806480937A0080917A0086FDFCCFC091AA
:101BA0007800D09179000E944805AB01BC01CE01BC
:101BB000B0E0A0E0DC01992788278C019D01040F8B
:101BC000151F261F371FC901B8012091640021602D
:101BD00020936400611571058105910511F00E9443
:101BE000BB138FEF9FEF9093FC058093FB0550E2B2
:101BF000852E912C8FB7F8944091C4015091C50166
:101C00006091C6017091C7018FBF80914D06142F5E
:101C1000181B812F90914E06992309F4A0C01093B0
:101C20004F0610924E0680E090E0892B19F30E9437
:101C30000000E0CF3E983F987DCF992029F0C43036
:101C4000D10511F42E9A2F9881E00E949A039E01EB
:101C5000D7FF04C0222733272C1B3D0B27703327C7
:101C6000CE01D7FD0796A3E095958795AA95E1F754
:101C7000D7FF05C00197A801421B530B9A01AC0185
:101C80005695542F44275795479541515E4FB0E0E4
:101C9000A0E03801621A730A8F3F6FEF96070CF4C9
:101CA0003BC06A01E4E9CE0ED11C7A0170E060E02D
:101CB000FD01EF5DF94F5F018F3F980779F0F50166
:101CC000E60FF71FE491F0E02F01022E01C0440C53
:101CD0000A94EAF7F70184884828448A21153105D7
:101CE00081F0F501E60FF71FE491F0E02F01062CDB
:101CF00002C0559447940A94E2F7F6018080482880
:101D000040826F5F7F4FFFEFCF1ADF0AEFEFEE1ACF
:101D1000FE0A6835710581F60196A85ABF4F4058F2
:101D20005F4FA03BB10509F0B7CF0E94A9038FE038
:101D300090E00E9427062196C931D10509F009CF0C
:101D4000992011F02F9A2D9880E991E00E942706A2
:101D50000E94250681E496E00E94D60B02CF909166
:101D60004C06191748F48F5F891708F05CCF81E0A3
:101D700083BF889513BE57CF81E080934E06409372
:101D80004D06809148069091490601969093490628
:101D9000809348068091DD01882339F0815080933B
:101DA000DD01811102C01092900012E001E0C091AB
:101DB0003501CC2309F40CC10E94AC0326E130E0CC
:101DC00030935106209350064CE050E05093530658
:101DD00040935206109356068DE691E00E94A708A4
:101DE000009356060E94A90389E190E00E94310801
:101DF0008111E3C080E190E09093510680935006FA
:101E0000909253068092520685E791E00E94A708BF
:101E10000E94A903D5E0E1E0F0E0F0935106E093E1
:101E2000500627E330E0309353062093520686E8AD
:101E300091E00E94A7080E94A9038BE490E00E9411
:101E400031088111BDC0D15031F7C0933501CC2389
:101E500009F4ADCF0E94AC031092530610925206C3
:101E600090925106809250068CE991E00E94A7085A
:101E70000E94A903C6E5D0E088E0E82EF12C10E02E
:101E800000E09DECC92E91E0D92E28E1A22EB12CC4
:101E90003CEA632E31E0732E40E3442E512C0F5F59
:101EA0001F4F1F930F9348EA51E05F934F93DF92C8
:101EB000CF920E944814B0925106A0925006F09220
:101EC0005306E09252068DEC91E00E94A7080E9412
:101ED000A903CE010E94B408382ECE0101960E94BB
:101EE000B4080F900F900F900F900F900F909FEFEE
:101EF000391268C08F3F09F065C01092DF0110925F
:101F0000DE01CE0102960E94B408382E8093CA01E9
:101F1000CE0103960E94B408282E8093CB01CE01F7
:101F200004960E94B4088093CC012091DE01309188
:101F3000DF012115310581F13F932F93282F082EC2
:101F4000000C330B3F938F93822D022C000C990BC6
:101F50009F932F92832D032C000C990B9F933F92FC
:101F60007F926F92DF92CF920E9448145092510656
:101F700040925006F0925306E09252068DEC91E0AA
:101F80000E94A7080E94A903EDB7FEB73C960FB6C2
:101F9000F894FEBF0FBEEDBF38E0E30EF11C2596AE
:101FA0000730110509F07BCF8CE291E00E943108E7
:101FB00091E0892780933501F8CE10923501F7CE54
:101FC000C0E043CF932D9093DF018093DE0199CF42
:101FD0008091E00181114CC01092DF011092DE016E
:101FE0000E94AC03109253061092520610925106B2
:101FF0001092500601E028E044E070E060E090E0DC
:1020000080E00E94930628E040E170E060E08FE00D
:1020100090E00E94930628E040E170E060E08AE2F0
:1020200090E00E94930628E040E170E060E085E4E3
:1020300090E00E94930628E041E170E060E080E6D5
:1020400090E00E94930628E044E070E060E08CE7B6
:1020500090E00E94930621E040E867E370E090E0A2
:1020600080E00E9493060E94A90381E08093E00132
:10207000C091340160913F066350770B00E027E088
:1020800047E0EC2FE350FF0BCF010E9493066AE07C
:1020900070E080E090E00E946D0520E047E16EE294
:1020A00070E080912A0190912B010E94CF0620E0E0
:1020B00047E16EE270E080912C0190912D010E9429
:1020C000CF0620E047E16EE270E080912E01909112
:1020D0002F010E94CF0620E047E16EE270E0809180
:1020E0003001909131010E94CF0620E047E16EE27D
:1020F00070E080913201909133010E94CF0620E080
:1021000047E165E270E080912201909123010E94F5
:10211000CF0620E047E165E270E0809124019091D4
:1021200025010E94CF0620E047E165E270E0809142
:102130002601909127010E94CF0620E047E165E249
:1021400070E080912801909129010E94CF0620E043
:1021500042E36CE170E080911C0190911D010E94AE
:10216000CF0620E042E36CE170E080911E01909187
:102170001F010E94CF0620E042E36CE170E08091F5
:102180002001909121010E94CF0620E04FE063E101
:1021900070E080911401909115010E94CF0620E01B
:1021A0004FE063E170E080911601909117010E9469
:1021B000CF0620E04FE063E170E08091180190913C
:1021C00019010E94CF0620E04FE063E170E08091AA
:1021D0001A0190911B010E94CF0620E043E26AE0C1
:1021E00070E080910C0190910D010E94CF0620E0DB
:1021F00043E26AE070E080910E0190910F010E942D
:10220000CF0620E043E26AE070E0809110019091F7
:1022100011010E94CF0620E043E26AE070E0809165
:102220001201909113010E94CF06EAE2F1E024E34B
:1022300031E04CE850E0819191910297DF011297D3
:102240008D3D0FEF90070CF43DC18D939C932E179D
:102250003F0789F7E2E2F1E02AE231E040ED5FEF8B
:10226000819191910196DF0112978D3891050CF0C3
:102270002CC18D939C932E173F0791F7ECE1F1E071
:1022800022E231E04AEB5FEF819191910396DF0109
:1022900012978D3891050CF01BC18D939C932E17CE
:1022A0003F0791F7E4E1F1E02CE131E04CE850E048
:1022B000819191910297DF0112978D3D1FEF910758
:1022C0000CF409C18D939C932E173F0789F7ECE01E
:1022D000F1E024E131E049EC5FEF819191910296C8
:1022E000DF011297863A91050CF0F8C08D939C930C
:1022F0002E173F0791F721E043E26AE070E08091FA
:102300000C0190910D010E94CF0621E043E26AE0AA
:1023100070E080910E0190910F010E94CF0621E0A4
:1023200043E26AE070E080911001909111010E94F7
:10233000CF0621E043E26AE070E0809112019091C3
:1023400013010E94CF0621E04FE063E170E080912D
:102350001401909115010E94CF0621E04FE063E146
:1023600070E080911601909117010E94CF0621E044
:102370004FE063E170E080911801909119010E9493
:10238000CF0621E04FE063E170E080911A01909167
:102390001B010E94CF0621E042E36CE170E08091D6
:1023A0001C0190911D010E94CF0621E042E36CE1E7
:1023B00070E080911E0190911F010E94CF0621E0E4
:1023C00042E36CE170E080912001909121010E9434
:1023D000CF0621E047E165E270E080912201909113
:1023E00023010E94CF0621E047E165E270E0809181
:1023F0002401909125010E94CF0621E047E165E28A
:1024000070E080912601909127010E94CF0621E083
:1024100047E165E270E080912801909129010E94D6
:10242000CF0621E047E16EE270E080912A019091B1
:102430002B010E94CF0621E047E16EE270E080911F
:102440002C0190912D010E94CF0621E047E16EE220
:1024500070E080912E0190912F010E94CF0621E023
:1024600047E16EE270E080913001909131010E946D
:10247000CF0621E047E16EE270E080913201909159
:1024800033010E94CF066AE070E080E090E00E9495
:102490006D058091C901882309F4ABC00E942C0608
:1024A00087FF1FC080914006853018F48F5F8093AE
:1024B0004006E0914006F0E0E959FE4F80818093AC
:1024C0003F062EC04D935C93C2CE4D935C93D3CE0A
:1024D0004D935C93E4CE4D935C93F6CE4D935C9319
:1024E00007CF0E942C0686FF07C0CB5F8CE7CD3755
:1024F000A8F4C093340114C00E942C0684FF06C0C7
:10250000809140068823A9F28150D1CF0E942C06E9
:1025100085FF0CC0C55083E0C33058F78093340169
:1025200062E370E080E090E00E946D056AE070E098
:1025300080E090E00E946D05C09134016C2F70E046
:1025400090E080E04AE00E945908E0903F066E2D3E
:1025500070E090E080E04AE00E945908F12CD0E061
:1025600001E022E047E0B701CE0103970E94930605
:102570006E0121E0C21AD108B7016250710924E04E
:1025800043E0C6010E949306370132E0630E711CDE
:102590005E0142E0A41AB10821E042E0B301C501A6
:1025A0000E949306219621E042E0B301CE010E94F1
:1025B0009306370153E0651A710821E042E0B30148
:1025C000C5010E94930621E042E0B301CE010E94C2
:1025D000930663E0E60EF11C41E0B701C6010E94DC
:1025E000750641E0B701CE010E9475060E94A9035D
:1025F0001ACB0E942C0683FF09C0C091C801C111EB
:102600001CC081E08093C901C1E017C00E942C0664
:1026100082FDF3CF0E942C06C82FCC1FCC27CC1FE5
:1026200061F70E942C0686FDE8CF0E942C0684FDEF
:10263000E4CF0E942C0685FDE0CFC093C80176CF81
:102640008F929F92AF92BF92CF92DF92EF92FF92C2
:10265000CF93DF93EC01688179818A819B81611539
:1026600071058105910521F464E279ED8BE597E030
:102670002DE133EF41E050E00E94DA1349015A01A5
:102680009B01AC01A7EAB1E40E94F9136B017C0144
:10269000ACEEB4EFA50194010E940714C60ED71E3C
:1026A000E81EF91EF7FE06C081E0C81AD108E1084D
:1026B00080E8F80AC882D982EA82FB82C701B601A3
:1026C0009F77DF91CF91FF90EF90DF90CF90BF90F9
:1026D000AF909F908F9008958F929F92AF92BF92EC
:1026E000CF92DF92EF92FF926091360170913701A5
:1026F000809138019091390161157105810591052D
:1027000021F464E279ED8BE597E02DE133EF41E0D0
:1027100050E00E94DA1349015A019B01AC01A7EA7B
:10272000B1E40E94F9136B017C01ACEEB4EFA5019A
:1027300094010E940714C60ED71EE81EF91EF7FE6C
:1027400006C081E0C81AD108E10880E8F80AC09202
:102750003601D0923701E0923801F0923901C70179
:10276000B6019F77FF90EF90DF90CF90BF90AF9032
:102770009F908F90089560933601709337018093F6
:102780003801909339010895F999FECF92BD81BD2A
:10279000F89A992780B50895262FF999FECF1FBA88
:1027A00092BD81BD20BD0FB6F894FA9AF99A0FBE7A
:1027B00001960895052E97FB1EF400940E94F113D4
:1027C00057FD07D00E940C1407FC03D04EF40C9464
:1027D000F11350954095309521953F4F4F4F5F4FE6
:1027E000089590958095709561957F4F8F4F9F4F7D
:1027F00008950E942E14A59F900DB49F900DA49F44
:10280000800D911D11240895B7FF0C94F9130E94B7
:10281000F913821B930B0895A1E21A2EAA1BBB1B6E
:10282000FD010DC0AA1FBB1FEE1FFF1FA217B3079C
:10283000E407F50720F0A21BB30BE40BF50B661FB2
:10284000771F881F991F1A9469F760957095809576
:1028500090959B01AC01BD01CF010895A29FB001ED
:10286000B39FC001A39F700D811D1124911DB29FC4
:10287000700D811D1124911D0895EE0FFF1F05900D
:10288000F491E02D099481E090E0F8940C942017E5
:10289000AEE0B0E0EEE4F4E10C94F7160D891E8989
:1028A00086E08C831A8309838FEF9FE79E838D8355
:1028B000AE01475E5F4F6F89788DCE0101960E9411
:1028C0006B142F813885020F131FF80110822E968A
:1028D000E4E00C941317ABE0B0E0E1E7F4E10C9412
:1028E000E9167C013B018A01FC0117821682838173
:1028F00081FFC8C1CE0101965C01F7019381F3010C
:1029000093FD859193FF81913F01882309F453C181
:10291000853239F493FD859193FF81913F01853292
:1029200029F4B70190E00E945B16E7CF912C212C8F
:10293000312CFFE1F31538F08B3211F190F4803235
:1029400009F1833229F137FC3CC020ED280F2A30F1
:1029500050F536FE20C08AE0989E200D1124922E5C
:1029600006C08D3291F0803371F7689430F8F3012E
:1029700093FD859193FF81913F018111DACF21C0B1
:10298000689431F8689432F8F2CF689433F8EFCF56
:10299000689434F8ECCFEAE02E9E200D1124222E0C
:1029A000689435F8E4CF8E3229F436FC04C168947B
:1029B00036F8DDCF8C3619F4689437F8D8CF8836DE
:1029C000B1F2982F9F7D95549330E0F08336A1F1BA
:1029D0008337C1F1833509F063C02801F2E04F0E5F
:1029E000511CF801C080D180692D70E036FC02C016
:1029F0006FEF7FEFC6010E9445164C01689437F8CF
:102A000082010AC00C5F1F4FFFE3F983882483947F
:102A1000912C6501E89437F833FE2DC0522C8114B7
:102A2000910471F5552009F468CFB70180E290E078
:102A30000E945B165A94F6CFF801808189830E5F5D
:102A40001F4FE4CF2801F2E04F0E511CF801C08067
:102A5000D180692D70E036FC02C06FEF7FEFC601B8
:102A60000E9450164C018201D5CFB70180E290E060
:102A70000E945B162A942814190409F0B0F7CECFEF
:102A8000F60137FC859137FE81916F01B70190E027
:102A90000E945B1651105A94F1E08F1A9108BFCF33
:102AA000843619F0893609F077C0F80137FE6BC01B
:102AB00060817181828193810C5F1F4FF32DFF76BE
:102AC0003F2E97FF09C090958095709561957F4F37
:102AD0008F4F9F4F689437F82AE030E0A5010E949D
:102AE0008B16C82ECA188C2C432C36FE0CC0E894CA
:102AF00040F8C91440F434FE05C032FC03C0F32D85
:102B0000FE7E4F2E892C44FE95C0FE01EC0DF11D7A
:102B10008081803309F087C0242D297E422E842DA8
:102B20008870582E43FC95C040FE8FC09C2C8214A8
:102B300018F42C0C922C981844FE91C0B70180E335
:102B400090E00E945B1642FE09C088E790E041FEDB
:102B500002C088E590E0B7010E945B16C91408F432
:102B60008AC0CA94D12C9FEFC91AD90ACA0CDB1C9F
:102B7000F60182916F01B70190E00E945B16AC14E0
:102B8000BD04B1F74FCF60817181072E000C880B17
:102B9000990B0E5F1F4F92CFD32CE894D4F82AE004
:102BA00030E0853739F1232D297FD22E8F3601F180
:102BB00048F48835A9F0F701868197812B96E2E1E8
:102BC0000C940517803749F08837A9F7D4FE02C066
:102BD0006894D2F820E130E00DC06894D4F8F6CFC4
:102BE00034FE03C0822F8660D82E20E132E002C07E
:102BF00028E030E0F801D7FE0FC06081718182814A
:102C000093810C5F1F4FA5010E948B16C82ECA1816
:102C10003D2CE89437F867CF6081718190E080E0C7
:102C20000E5F1F4FF0CF42FC02C0839478CF839495
:102C3000839475CF842D867809F471CFF6CFB701D0
:102C400080E290E00E945B1683948214C0F3512CC2
:102C500073CF522C5818821408F46ECFF8CF842DFD
:102C6000867809F47BCF8BE241FE80E247FC8DE25F
:102C7000B70190E071CFB70180E390E00E945B164E
:102C80009A946CCF8FEF9FEF99CFFC010590615024
:102C900070400110D8F7809590958E0F9F1F089572
:102CA000FC016150704001900110D8F7809590951B
:102CB0008E0F9F1F08950F931F93CF93DF93182FAD
:102CC000092FEB018B8181FD09C01FEF0FEF812FD1
:102CD000902FDF91CF911F910F91089582FF14C023
:102CE0002E813F818C819D81281739073CF4E88132
:102CF000F981CF0101969983888310838E819F810A
:102D000001969F838E83E3CFE885F985812F09950E
:102D1000892BA1F3DACFFA01AA27283051F120310B
:102D200081F1E8946F936E7F6E5F7F4F8F4F9F4F5F
:102D3000AF4FB1E03ED0B4E03CD0670F781F891FA1
:102D40009A1FA11D680F791F8A1F911DA11D6A0F6F
:102D5000711D811D911DA11D20D009F468943F9122
:102D60002AE0269F11243019305D3193DEF6CF0121
:102D70000895462F4770405D4193B3E00FD0C9F7E7
:102D8000F6CF462F4F70405D4A3318F0495D31FD54
:102D90004052419302D0A9F7EACFB4E0A6959795A7
:102DA000879577956795BA95C9F70097610571057D
:102DB00008959B01AC010A2E0694579547953795C7
:102DC0002795BA95C9F7620F731F841F951FA01D21
:102DD00008952F923F924F925F926F927F928F92BF
:102DE0009F92AF92BF92CF92DF92EF92FF920F939A
:102DF0001F93CF93DF93CDB7DEB7CA1BDB0B0FB6A4
:102E0000F894DEBF0FBECDBF09942A883988488860
:102E10005F846E847D848C849B84AA84B984C884F6
:102E2000DF80EE80FD800C811B81AA81B981CE0FED
:102E3000D11D0FB6F894DEBF0FBECDBFED010895D2
:042E4000F894FFCF34
:102E4400FFFFFFFF00E1000000000000C9FF0000D9
:102E540037006E00FBFF1E0041006400BAFF000053
:102E64004600D0FF000030005E0000002300460052
:102E740069008C007C010100000000C18081000019
:102E84000000000000C704A005E804DD042E05ECE2
:102E9400040A05000000002A079A042E082D08D60B
:102EA4000BFCFF0000170C3C31281F160D46524F37
:102EB40047474552004259204A414D4553205354F7
:102EC400455649434B0050524553532041204F52DD
:102ED400204220544F2053544152540048494748FB
:102EE4002053434F52455300253264002563256324
:062EF40025632025750096
:2070000055C000006EC000006CC000006AC0000068C0000066C0000064C0000062C0000043
:2070200060C000005EC00000F2C400005AC0000058C0000056C0000054C0000052C00000EE
:2070400050C0000078C000004CC000004AC0000048C0000046C0000044C0000042C00000BE
:2070600040C000003EC000003CC000003AC0000038C0000036C0000034C0000032C0000048
:2070800030C000002EC000002CC000002AC0000028C0000026C0000024C0000022C00000A8
:2070A00020C000001EC000001CC0000011241FBECFEFDAE0DEBFCDBF11E0A0E0B1E0E2E3BC
:2070C000FFE702C005900D92A83AB107D9F711E0A8EAB1E001C01D92AE3BB107E1F78FD30B
:2070E00026C78ECFF89410926F0010928100109285001092840081E085BF15BE47985D9AEB
:20710000289A0C94000008952091B2013091B3012F5F3F4F3093B3012093B201932F37FFA6
:2071200003C08EEF831B982F990F921710F447980895479A08951F920F920FB60F9211246E
:207140002F938F939F93EF93FF9310928500109284008091A8019091A901009741F00197D3
:207160009093A9018093A801892B09F45D9A8091AA019091AB01009741F001979093AB0126
:207180008093AA01892B09F4289AE0E0F0E0859194918F5F9F4F49F08091AC019091AD0151
:2071A00001969093AD018093AC01FF91EF919F918F912F910F900FBE0F901F90189584E0BC
:2071C0008093E9000DC08091E8008B778093E80003C08EB3882351F08091E80082FFF9CFBE
:2071E0008091E80085FFEFCF8091F1000895982F83E08093E9008091E80085FD0DC0809136
:20720000E8008E778093E80003C08EB3882369F08091E80080FFF9CF9093F1005D9884E6CB
:2072200090E09093A9018093A80108954F925F926F927F928F929F92AF92BF92CF92DF921E
:20724000EF92FF920F931F93CF93DF9384E08093E9008091E80082FF57C2289884E690E067
:207260009093AB018093AA01AADF182F853481F48CE49DE19093AD018093AC0107B600FC4B
:20728000FDCFF999FECF81E180935700E89503C0843519F494DF8DE00DC28C34E1F38035F9
:2072A000D1F3843721F484E4A2DF80E003C2813611F489E5FFC18134B1F481DF182F7FDFE3
:2072C00090E0880F991FAA2797FDA095BA2F312F330F20E0442737FD4095542F822B932B68
:2072E000A42BB52BB8C1803711F483E5E3C1833549F4C0E0D1E089917ADF21E0C730D20714
:20730000D1F7D9C1863521F481E371DF80E3D2C1833731F487E86BDF85E969DF8EE1CAC149
:207320008536B9F4E0E0F0E093E085E090935700E89507B600FCFDCF80935700E89507B65D
:2073400000FCFDCFE058FF4FA0E7E030FA0771F7A2CF823739F4E1E0F0E089E08093570024
:207360008491A8C1863439F4E0E0F0E089E08093570084919FC18E3439F4E3E0F0E089E0E5
:2073800080935700849196C1813539F4E2E0F0E089E08093570084918DC1823631F489E521
:2073A00026DF80E024DF80E885C1823419F0873609F0E5C01092AD011092AC0100DF082FE8
:2073C000FEDEF82EFCDE682E8554823008F071C1902F80E0CF2DD0E0C82BD92B10926F00B3
:2073E000173609F04BC081E180935700E895DD24CC24C3943FC0E090AE01F090AF010091CC
:20740000B0011091B101B6E46B16D9F4ED2DF0E0EE29FF29E4918E2FEADEDD2081F082E08D
:2074200090E0A0E0B0E0E80EF91E0A1F1B1FE092AE01F092AF010093B0011093B101DC2470
:2074400018C0D801C701B695A7959795879559D5CEDE82E090E0A0E0B0E0E80EF91E0A1FF2
:207460001B1FE092AE01F092AF010093B0011093B1012197209709F0BECF7DC08090AE01F5
:207480009090AF01A090B001B090B10196E4691609F05DC083E0F40180935700E89507B63E
:2074A00000FCFDCF54C0F6E46F1661F5772031F1E090AE01F090AF010091B0011091B1019E
:2074C0007EDED82ECC24852D90E08C299D29F7010C0140925700E895112482E090E0A0E08B
:2074E000B0E0E80EF91E0A1F1B1FE092AE01F092AF010093B0011093B10102C060DE582E1A
:20750000742423C0E090AE01F090AF010091B0011091B10116950795F794E79450DE682FFA
:20752000C701F7D48091AE019091AF01A091B001B091B1010296A11DB11D8093AE01909349
:20754000AF01A093B001B093B101219704C05524772444244394209709F0A5CF96E46916B6
:2075600041F485E0F40180935700E89507B600FCFDCF8DE03CDE82E080936F009CC0833492
:2075800071F40091AE011091AF0119DE90E021E0F8010C0120935700E89511247CCE8336C8
:2075A00019F5E090AE01F090AF010091B0011091B10105DEF701E16090E021E00C0120938C
:2075C0005700E895112482E090E0A0E0B0E0E80EF91E0A1F1B1FE092AE01F092AF0100936A
:2075E000B0011093B10157CE8D3661F4E091AE01F091AF0185E080935700E89507B600FCF2
:20760000FDCF49CE823551F4E091AE01F091AF0105911491812FEBDD802F4CC0843421F5FE
:20762000E090AE01F090AF010091B0011091B10116950795F794E794C2DD682FC70169D4DE
:207640008091AE019091AF01A091B001B091B1010296A11DB11D8093AE019093AF01A093D8
:20766000B001B093B10117CE843609F5E090AE01F090AF010091B0011091B101D801C70142
:20768000B695A795979587953CD4B1DD82E090E0A0E0B0E0E80EF91E0A1F1B1FE092AE010A
:2076A000F092AF010093B0011093B10104C08B3111F08FE39CDD83E08093E9009091E8002B
:2076C0008091E8008E778093E80095FF04C010C08EB38823C9F08091E80080FFF9CF809193
:2076E000E8008E778093E80003C08EB3882361F08091E80080FFF9CF84E08093E9008091F1
:20770000E8008B778093E800DF91CF911F910F91FF90EF90DF90CF90BF90AF909F908F90AC
:207720007F906F905F904F9008959091B601892F8F77813249F58091B7018032A1F081328A
:2077400019F5913A09F58091E800877F8093E8008DE091E067E070E00BD28091E8008B770B
:207760008093E8000895913279F48091E800877F8093E8008DE091E067E070E05DD2809192
:20778000E8008E778093E800089582E061EC42E0B5D083E061E842E1B1D084E060E842E1EF
:2077A000ADC084B7877F84BF88E10FB6F89480936000109260000FBE20E880E090E00FB63F
:2077C000F89420936100809361000FBE81E085BF92E095BF3F9A209A559AE1E6F0E02083A1
:2077E000108247985D9A289A109289008AEF8093880090936F0083E080938100F0C0409116
:20780000000850910108109201081092000894B714BE88E10FB6F8948093600010926000D5
:207820000FBE292F30E0F901E270F07091FD18C090FF05C0859194918F5F9F4F81F423FFFF
:207840000FC08091090190910A014817590741F0E0E0F0E0859194918F5F9F4F09F042DC64
:20786000A0DF78941092AD011092AC010CC0DEDC36D38091AC019091AD0181549F4110F00D
:207880001092140141DC80911401882381F78091E00081608093E00025DC80E090E0089598
:2078A000FA01923049F0933061F09130F9F485E191E022E130E01EC087E291E02EE330E04D
:2078C00019C0882329F485E691E024E030E012C0813029F489E691E022E230E00BC0823006
:2078E00029F48DE891E028E130E004C080E090E020E030E091838083C90108958093E9004E
:207900008091EB0081608093EB001092ED006093EC004093ED008091EE00881F8827881F62
:2079200008958091B60188238CF403C08EB38823B1F08091E80082FFF9CF8091E8008B772A
:207940008093E80008958EB3882349F08091E80080FFF9CF8091E8008E778093E800089594
:20796000EF92FF920F931F9345D04CD008ED10E0F80180818F77808380818068808380819B
:207980008F7D808319BC1EBA1092B40180EEE82EF12CF70180818B7F8083F8018081816052
:2079A000808380E060E042E0A9DFE1EEF0E080818E7F8083E2EEF0E0808181608083808144
:2079C00088608083F70180818E7F8083F8018081806180831F910F91FF90EF900895E7ED06
:2079E000F0E08081816080838AE482BF81E08093B501B6CFE8EDF0E080818E7F808310921C
:207A0000E20008951092DA001092E10008951F920F920FB60F9211242F933F934F935F93F6
:207A20006F937F938F939F93AF93BF93EF93FF938091DA0080FF1BC08091D80080FF17C0B2
:207A40008091DA008E7F8093DA008091D90080FF0BC080E189BD82E189BD09B400FEFDCF36
:207A600081E08EBB3BD203C019BC1EBA37D28091E10080FF17C08091E20080FF13C0809138
:207A8000E2008E7F8093E2008091E20080618093E2008091D80080628093D80019BC85E049
:207AA0008EBB1CD28091E10084FF2CC08091E20084FF28C080E189BD82E189BD09B400FEC5
:207AC000FDCF8091D8008F7D8093D8008091E1008F7E8093E1008091E2008F7E8093E20012
:207AE0008091E20081608093E2008091B401882331F48091E30087FD02C081E001C084E067
:207B00008EBBECD18091E10083FF21C08091E20083FF1DC08091E100877F8093E10082E06A
:207B20008EBB1092B4018091E1008E7F8093E1008091E2008E7F8093E2008091E2008061E9
:207B40008093E20080E060E042E0D8DEC7D1FF91EF91BF91AF919F918F917F916F915F9130
:207B60004F913F912F910F900FBE0F901F9018959C014091BC015091BD014617570718F49D
:207B8000F90190E044C06115710511F0AB01F8CF8091E8008E778093E80040E050E0F0CF0F
:207BA0008EB3882309F444C0853009F443C08091E80083FF02C081E008958091E80082FD70
:207BC00031C08091E80080FF22C08091F3009091F200782F60E0292F30E0262B372B07C07A
:207BE00081918093F100415050402F5F3F4F4115510519F02830310598F390E02830310566
:207C000009F491E08091E8008E778093E8004115510531F6992321F605C08EB3882341F075
:207C2000853041F08091E80082FFF7CF80E0089582E0089583E008959C016115710529F47C
:207C40008091E8008B778093E800F90126C08EB3882391F1853091F18091E80083FF02C06C
:207C600081E008958091E80082FFF1CF06C08091F10081936150704059F02091F300809191
:207C8000F200322F20E090E0822B932B892B79F78091E8008B778093E80061157105B9F601
:207CA00005C08EB3882341F0853041F08091E80080FFF7CF80E0089582E0089583E00895C2
:207CC0000F931F93DF93CF9300D0CDB7DEB7E6EBF1E08091F100819381E0EE3BF807C9F792
:207CE00024DD8091E80083FFE4C08091B6019091B701953009F46DC0963040F4913081F1A7
:207D0000913070F0933009F0D4C02AC0983009F4A3C0993009F4B2C0963009F0CAC07CC023
:207D2000803809F4C6C0823809F0C3C08091BA0187708093E9008091EB001092E9002091DB
:207D4000E800277F2093E80090E025E0969587952A95E1F781708093F1001092F10087C0D8
:207D6000882319F0823009F0A4C08F71823009F0A0C08091B801882331F52091BA01277097
:207D800009F497C02093E9008091EB0080FF1BC0933021F48091EB00806213C08091EB0018
:207DA00080618093EB0081E090E002C0880F991F2A95E2F78093EA001092EA008091EB00E5
:207DC00088608093EB001092E9008091E800877F51C0882309F06DC01091B8011F770FB79B
:207DE000F8948091E800877F8093E8009ADD8091E80080FFFCCF8091E3008078812B809398
:207E0000E30080688093E300112311F482E001C083E08EBB0FBF4DC08058823008F049C033
:207E20008091B8019091B9016091BA01AE014F5F5F4F36DDBC01009709F43BC08091E8008E
:207E4000877F8093E80089819A8192DE8091E8008B778093E8002DC0803859F58091E800AA
:207E6000877F8093E8008091B4018093F1008091E8008E778093E80054DD1BC08823C9F4CA
:207E80009091B8019230A8F48091E800877F8093E8009093B40145DD8091B401882331F420
:207EA0008091E30087FD02C081E001C084E08EBB6CDC8091E80083FF0AC08091EB0080624E
:207EC0008093EB008091E800877F8093E8000F900F90CF91DF911F910F91089508951F9360
:207EE0008EB3882361F01091E9001092E9008091E80083FF01C0E4DE17701093E9001F916F
:207F00000895F999FECF92BD81BDF89A992780B50895262FF999FECF1FBA92BD81BD20BDBD
:207F20000FB6F894FA9AF99A0FBE01960895F894FFCF4341544552494E4100777700080031
:207F40000000000000080112011001020000084123360001000201000109023E00020100FF
:207F600080320904000001020201000524001001042402040524060001070582030800FF0C
:207F800009040100020A000000070504021000010705830210000104030904220341007216
:207FA000006400750069006E006F0020004C0065006F006E006100720064006F0000001836
:1A7FC00003410072006400750069006E006F0020004C004C004300000000D7
:00000001FF
